:400000000010002011000000C5020000C502000010B500F05FF9C04670B50F4C23688022D20213432360182000F038FA22680B4B134023600A4A0B4B1A60063A0A4B1A6041
:40004000002525600949092000F0F4F9092000F0E5F9074B1D6070BD00010B40FFFFFBFF0600008004010B4008010B40AD0600000C020B4010B572B600240FE01A4862004D
:40008000131959000B00411889881A5AC31858880004104300F010F90134E4B2012CEDD9EE221202114B1A6099231B04104A1360104A1360104A1360104A1360104A11781D
:4000C00006230B43DBB213700E4A0F4B1A600F4B06221A60C02212040D4B1A600D4A0E4B1A60FFF799FF10BD180800000C00014000500F4010500F4020500F4030500F40B9
:4001000000700F400660C300080004400801044008020440800DC3000803044010B5064C2378002B07D1054B002B02D0044800E000BF0123237010BD40010020000000007F
:40014000DC070000084B10B5002B03D00749084800E000BF07480368002B00D110BD064B002BFBD09847F9E70000000044010020DC070000C00000200000000010B562B6B9
:4001800000240D2C00DD00240D2C00D98FE0A300484AD3589F46012000F0E0F8FA20800000F05AF9002000F0D9F880E0012000F0E1F8C82000F050F9002000F0DBF876E0D0
:4001C000012000F0E3F8C82000F046F9002000F0DDF86CE0012000F0E5F8C82000F03CF9002000F0DFF862E0012000F0E7F8C82000F032F9002000F0E1F858E0012000F082
:40020000E9F8C82000F028F9002000F0E3F84EE0012000F0EBF8C82000F01EF9002000F0E5F844E0012000F0EDF8C82000F014F9002000F0E7F83AE0012000F0D7F8C8202B
:4002400000F00AF9002000F0D1F830E0012000F0C1F8C82000F000F9002000F0BBF826E0012000F0ABF8C82000F0F6F8002000F0A5F81CE0012000F095F8C82000F0ECF8C1
:40028000002000F08FF812E0012000F07FF8C82000F0E2F8002000F079F808E0012000F069F8C82000F0D8F8002000F063F8013467E7C046E007000010B50A00002100F03D
:4002C00085FA10BD10B500F055FA03680C2B00D1FEE7FEE770B50F4E0F4D13E029686B68AC68002202E001C901C30432A242FAD1E868002202E0002102C304328242FAD1B2
:400300001035013E002EE9D100F03AFAFFF736FFFEE7C046010000007808000010B500230AE0032B03D89A000949505800E009489900094A885001332F2BF2D9FFF79AFE4B
:400340008022D205116801230B43136010BDC04600000000C50200000000002004490A68D2B210239A43000118401043086070470000044004490A68D2B220239A434001E6
:4003800018401043086070470000044004490A687F231A40C301D8B2104308607047C0460000044004490A687F231A40C301D8B2104308607047C04600030440044A1368D9
:4003C000DBB201218B430840184310607047C0460000044004490A68D2B220239A434001184010430860704700030440044A1368DBB201218B430840184310607047C046A1
:400400000001044004490A687F231A40C301D8B2104308607047C046000204401F2318401E3B8340014A13607047C04600E100E001BE704770B504000D001F2802D90020D0
:40044000FFF7F6FF1034A40080239B059C4664442068256070BDC04610B5040006E0084B586800F075F9074B9C46644480231B029C42F4D8024B9868604300F069F910BD27
:40048000C40000200080FFFF10B5034B1B7B584300F05EF910BDC046C4000020F0B557464E46C0B483B0040000F05CF90190E71E2D2F74D83F4B1B78DBB29C4208D83E4BA3
:4004C0001B78DBB29A463D4B1B78DBB2994631E03B4B1B78DBB29C4208D83A4B1B78DBB29A46394B1B78DBB2994623E0374B1B78DBB29C4208D8364B1B78DBB29A46354B94
:400500001B78DBB2994615E0334B1B78DBB29C4208D8324B1B78DBB29A46314B1B78DBB2994607E02F4B1B78DBB29A462E4B1B78DBB299462D4BDE5D2F2E09D92A2C07D972
:4005400019222B4B1A60052000F002F9192503E0274B1D683F231D40B54206D9234BDA5D234B1A60052000F0F3F81F4B9C4664442378DBB21F4A13601F4B52461A601F4B28
:400580004A461A600520FFF77FFFB5420AD2174BDA5D174B1A60052000F0DAF802E00020FFF746FF019800F0E1F803B00CBC91469A46F0BDC0F1FF0FC1F1FF0FC2F1FF0FAB
:4005C000C3F1FF0FC4F1FF0FC5F1FF0FC6F1FF0FC7F1FF0FC8F1FF0FC9F1FF0FCAF1FF0FCBF1FF0FCCF1FF0FCDF1FF0F240800002CFF0B4028FF0B401CFF0B4020FF0B408A
:40060000034B1868C0231B02184000D00120704700010B4010B500F0A5F8044A1368C02109020B43136000F0A1F810BD00010B4010B500F097F808490A68084B1A408024DE
:40064000E40122430A600A6813408022120213430B6000F08BF810BD00010B40FF3FFFFF70B5050000F07EF80400FFF7C9FF002803D0FFF7DDFF012100E0002108482840C8
:40068000084A1568084B2B40184310601368012901D1FFF7BFFF200000F068F870BDC0460404040010020B40FBFBFBFF10B5244B1B685B0715D5234B1B685B070ED5224B15
:4006C000D969042001401F4C22688A432260DA698243DA611B69002B00D098470420FFF7BFFF174B1B685B0518D5164B1B685B0510D5154BD9698022D20011401148026811
:400700008A430260D969114A0A40DA615B69002B00D098478020C000FFF7A2FF084B1B685B030CD5074B1B685B0304D5064B9B69002B00D098478020C002FFF791FF10BDCE
:4007400010020B40D80000205C010020FFFBFFFF0230800804D0C0460138FDD1C046C046C0467047EFF3108072B6704780F310887047C046014B18687047C0463C0100204C
:400780000E4B70B500251E000D4CE41AA410A54204D0AB00F35898470135F8E700F05AF8084B00251E00084CE41AA410A54204D0AB00F35898470135F8E770BD60080000B0
:4007C00060080000600800006808000003008218934202D019700133FAE770470000000096010000AC010000C0010000D4010000E8010000FC010000100200002402000028
:40080000380200004C0200006002000074020000880200009C02000000300F40000400400F400004030405060708090A0B0C0E0F101112131415161718191B1C1D1E1F2034
:4008400021222325262728292A2B2E2F3031323334354300F8B5C046F8BC08BC9E467047450100001D030000F8B5C046F8BC08BC9E4670471D01000088080000C0000020AB
:40088000800000004000000000000000010000000000E02EC05D00001800000000366E01040404000000000000000000000000000000000000000000000000000000000083
:4008C000000000005208000000000000000000000000000000000000000000000000000000000000000000000000000000000000000000000000000000000000000000009E
:4009000000000000DC0000200000000000000000000000000000000000000000000000000000000000000000000000000000000000000000000000000000000000000000BB
:400940000000000000000000000000000000000000000000000000000000000000000000000000000000000000000000000000000000000000000000000000000000000077
:400980000000000000000000000000000000000000000000000000000000000000000000000000000000000000000000000000000000000000000000000000000000000037
:4009C00000000000000000000000000000000000000000000000000000000000000000000000000000000000000000000000000000000000000000000000000000000000F7
:400A000000000000000000000000000000000000000000000000000000000000000000000000000000000000000000000000000000000000000000000000000000000000B6
:0200000490303A
:02000000FDBD44
:0200000490402A
:200000000000000000000000000000000000000000000000000000000000000000000000E0
:0200000490501A
:0C000000000204C81193110104CB0F5042
:0200000490600A
:0100000001FE
:00000001FF