:400000000010002011000000D1020000D102000010B500F065F9C04670B5194C23688022D20213432360182000F0C6F92268154B13402360144A154B1A602022144B1A6062
:40004000103A144B1A602032134B1A6080221206124B1A6000252560114A124B1A60124A124B1A60124A134B1A601349092000F087F9092000F078F9104B1D6070BDC046D5
:4000800000010B40FFFFFBFF0600008004010B4014020240180202402002024008010B40FE00008000000240FE0000C0400002400100008080000240C90500000C020B4050
:4000C00010B572B600240FE031486200131959000B00411889881A5AC31858880004104300F0CAF80134E4B2012CEDD9284801000C314C3000F0A6F8C0229200254B1A601F
:40010000C0229204244B1A60EE221202234B1A6099231B04224A13608A21C903214A1160214A13608022920520490A6020490B60204B1A6020490B783C22934314221343F6
:40014000DBB20B701D4A117816230B43DBB2137004231B4A1360C02149001A4A11600339FF39194A1160C0214903184A11603E21174A1160D8210901164A1160164A1360D2
:40018000164A1360FFF748FF00F09CF810BDC0460007000000000140040001400C00014000500F4008500F4010500F4018500F4030500F4038500F4001700F4000700F402D
:4001C000000004400800044000010440080104401801044008030440000404401804044010B5064C2378002B07D1054B002B02D0044800E000BF0123237010BD40010020B7
:4002000000000000FC060000084B10B5002B03D00749084800E000BF07480368002B00D110BD064B002BFBD09847F9E70000000044010020FC060000C00000200000000097
:4002400062B6FEE7F0B50025002711E0BB00C658F3B2FF22964308E06A008A181478A419527822700135013BDBB2002BF4D10137062FEBD9F0BDC04610B50A00002100F0DB
:4002800035FA10BD0C4B1B68002803D080221206134301E05B005B08074A1360074B1B68002803D080229204134301E0044A1340024A13607047C04680031A4008010B406D
:4002C000FFFFFFFD10B50120FFF7DCFF10BDC04610B500F0DFF903680C2B00D1FEE7FEE770B50F4E0F4D13E029686B68AC68002202E001C901C30432A242FAD1E86800227E
:4003000002E0002102C304328242FAD11035013E002EE9D100F0C4F9FFF792FFFEE7C04601000000BC07000010B500230AE0032B03D89A000949505800E009489900094A55
:40034000885001332F2BF2D9FFF7BAFE8022D205116801230B43136010BDC04600000000D1020000000000201F2318401E3B8340014A13607047C04600E100E001BE704799
:4003800070B504000D001F2802D90020FFF7F6FF1034A40080239B059C4664442068256070BDC04610B5034B1B7B584300F060F910BDC046C4000020F0B557464E46C0B457
:4003C00083B0040000F05EF90190E71E2D2F74D83F4B1B78DBB29C4208D83E4B1B78DBB29A463D4B1B78DBB2994631E03B4B1B78DBB29C4208D83A4B1B78DBB29A46394B4B
:400400001B78DBB2994623E0374B1B78DBB29C4208D8364B1B78DBB29A46354B1B78DBB2994615E0334B1B78DBB29C4208D8324B1B78DBB29A46314B1B78DBB2994607E02A
:400440002F4B1B78DBB29A462E4B1B78DBB299462D4BDE5D2F2E09D92A2C07D919222B4B1A60052000F004F9192503E0274B1D683F231D40B54206D9234BDA5D234B1A60EB
:40048000052000F0F5F81F4B9C4664442378DBB21F4A13601F4B52461A601F4B4A461A600520FFF77FFFB5420AD2174BDA5D174B1A60052000F0DCF802E00020FFF75EFF33
:4004C000019800F0E3F803B00CBC91469A46F0BDC0F1FF0FC1F1FF0FC2F1FF0FC3F1FF0FC4F1FF0FC5F1FF0FC6F1FF0FC7F1FF0FC8F1FF0FC9F1FF0FCAF1FF0FCBF1FF0F83
:40050000CCF1FF0FCDF1FF0F680700002CFF0B4028FF0B401CFF0B4020FF0B40034B1868C0231B02184000D00120704700010B4010B500F0A7F8044A1368C02109020B438C
:40054000136000F0A3F810BD00010B4010B500F099F808490A68084B1A408024E40122430A600A6813408022120213430B6000F08DF810BD00010B40FF3FFFFF70B5050026
:4005800000F080F80400FFF7C9FF002803D0FFF7DDFF012100E0002108482840084A1568084B2B40184310601368012901D1FFF7BFFF200000F06AF870BDC0460404040035
:4005C00010020B40FBFBFBFF10B5244B1B685B0715D5234B1B685B070ED5224BD969042001401F4C22688A432260DA698243DA611B69002B00D098470420FFF7BFFF174B42
:400600001B685B0518D5164B1B685B0510D5154BD9698022D2001140114802688A430260D969114A0A40DA615B69002B00D098478020C000FFF7A2FF084B1B685B030CD59C
:40064000074B1B685B0304D5064B9B69002B00D098478020C002FFF791FF10BD10020B40D80000205C010020FFFBFFFF000000000230800804D0C0460138FDD1C046C04619
:40068000C0467047EFF3108072B6704780F310887047C046014B18687047C0463C0100200E4B70B500251E000D4CE41AA410A54204D0AB00F35898470135F8E700F06CF8B9
:4006C000084B00251E00084CE41AA410A54204D0AB00F35898470135F8E770BDA4070000A4070000A4070000AC07000003008218934202D019700133FAE77047000000003F
:4007000000300F40000400400F40000438803E4058045F011801B401E280E6105304D42062048B048E049708D8406C407008DC0319082301610289088F01A102B448B502E0
:40074000C608C808D802E201E608EC0804300F4001310F4003330F4002400F4005410F4003420F400E430F40030405060708090A0B0C0E0F101112131415161718191B1CED
:400780001D1E1F2021222325262728292A2B2E2F3031323334354300F8B5C046F8BC08BC9E4670470902000029030000F8B5C046F8BC08BC9E467047E1010000D0070000F6
:4007C000C000002080000000400000000000000000000000010000000000E02EC05D00001800000000366E0104040400000000000000000000000000000000000000000064
:40080000000000000000000000000000960700000000000000000000000000000000000000000000000000000000000000000000000000000000000000000000000000001B
:40084000000000000000000000000000DC0000200000000000000000000000000000000000000000000000000000000000000000000000000000000000000000000000007C
:400880000000000000000000000000000000000000000000000000000000000000000000000000000000000000000000000000000000000000000000000000000000000038
:4008C00000000000000000000000000000000000000000000000000000000000000000000000000000000000000000000000000000000000000000000000000000000000F8
:4009000000000000000000000000000000000000000000000000000000000000000000000000000000000000000000000000000000000000000000000000000000000000B7
:400940000000000000000000000000000000000000000000000000000000000000000000000000000000000000000000000000000000000000000000000000000000000077
:0200000490303A
:02000000962246
:0200000490402A
:200000000000000000000000000000000000000000000000000000000000000000000000E0
:0200000490501A
:0C000000000204C81193110104CAA7B546
:0200000490600A
:0100000001FE
:00000001FF