:400000000010002011000000790200007902000010B500F039F9C04670B5134C23688022D20213432360182000F022FC22680F4B134023600E4A0F4B1A6010220E4B1A600D
:40004000822212060D4B1A60002525600C4A0D4B1A600D49092000F0B1FB092000F0A2FB0A4B1D6070BDC04600010B40FFFFFBFF0600008004010B401C02024008010B407C
:400080000E00008000000240810A00000C020B4010B572B600240FE018486200131959000B00411889881A5AC31858880004104300F0C2F80134E4B2012CEDD9EE221202BE
:4000C0000F4B1A6099231B040E4A13600E4A13600E4A117806230B43DBB2137001230C4A13600C490C4A11600C4A13600C4A0D4B1A60FFF791FF00F0B5F810BDE41F000066
:400100000C00014020500F4030500F4000700F4000020440B06DDB000802044018020440800D1B000803044010B5064C2378002B07D1054B002B02D0044800E000BF012333
:40014000237010BD4001002000000000CC1F0000084B10B5002B03D00749084800E000BF07480368002B00D110BD064B002BFBD09847F9E70000000044010020CC1F0000A5
:40018000C00000200000000010B562B600F0C0FA00F0CEFA022000F0D5FA012000F00EFA002000F017FA00F0B5F90C2000F066F9002000F0DBFA00F015FF01F0EBFC184AC9
:4001C000184B01F06DFA0022174B00F053FF01F035FD041CC820800000F028FB012000F04DF90021002000F0A5F9104800F038F90C21002000F09EF90D4800F031F90021BD
:40020000012000F097F9201C00F02CFD00F0B0F90321012000F08EF9064800F021F9C7E7B81E85EB51B8DE3F00002440D01F0000DC1F0000E01F000010B50A00002101F0D3
:40024000BDFE10BD064B1B68002803D080221206134301E05B005B08014A13607047C04680031A4010B50122024B1A600120FFF7E9FF10BD00031A4010B501F073FE0368B6
:400280000C2B00D1FEE7FEE770B50F4E0F4D13E029686B68AC68002202E001C901C30432A242FAD1E868002202E0002102C304328242FAD11035013E002EE9D101F058FEFA
:4002C000FFF762FFFEE7C04601000000C820000010B500230AE0032B03D89A000949505800E009489900094A885001332F2BF2D9FFF7CEFE8022D205116801230B4313607D
:4003000010BDC04600000000790200000000002010B50C4C2268C0218A4322602268A2398A43226021684300DBB220221343D8B208432060012000F091FA2368202293433F
:40034000236010BD0002044070B505000F4C22684023134323602368802293432360002000F07CFA23681E229343236021686D00EBB220221343D8B208432060012000F0DB
:400380006DFA236820229343236070BD00020440F8B5274B1A68FE218A431A6025490868254A0240254802430A601A6840218A431A60196880220A431A60CA277F000020E7
:4003C00000F04CFA1A4C2368202633432360012000F044FA1A4B1D682368B3432360002000F03CFA10231D40236833432360012000F034FA2368B3432360002D02D10A2093
:4004000000F02CFA013F002D01D0002FD7D1084B1A6880218A431A601A687E318A431A60044A1168044B0B4006490B431360F8BD00020440080204400780FFFF48120000C3
:4004400004020440B06D000010B50400FFF7A0FF2009FFF779FF0F202040FFF775FF10BD70B505000078012404E0FFF7EDFF285D0134E4B20028F8D170BDC04610B5040090
:40048000FFF786FF2009FFF743FF0F202040FFF73FFF10BD10B5282000F0C8F90320FFF737FF052000F0C2F90320FFF731FF0F2000F0BCF90320FFF72BFF012000F0B6F9D3
:4004C0000220FFF725FF052000F0B0F90620FFF7D5FF0E20FFF7D2FF2C20FFF7CFFF0820FFF7CCFF0120FFF7C9FF0C20FFF7C6FF0320FFF7C3FF052000F098F910BDC0460A
:4005000010B50C20FFF7BAFF0122014B1A7010BD5C01002010B5064B5B78002B04D1FFF7B9FF0122024B5A70FFF7EAFF10BDC0465C01002010B501280BD0002804D00228E9
:400540000CD003280FD012E08039C8B2FFF796FF0DE04039C8B2FFF791FF08E06C39C8B2FFF78CFF03E02C39C8B2FFF787FF10BD30B585B00400002201AB9A7209250EE0D8
:400580000A21200000F068FBC9B2303101AB59550A21200000F0DAFA0400013DEDB2092CEED80A21200000F057FBC9B2303101A841554019FFF754FF05B030BD04490A68D1
:4005C000D2B220239A43400118401043086070470003044004490A68D2B240239A43800118401043086070470003044010B503210E2000F0F5F824490E2000F0DFF8012277
:40060000224B1A60224B1B68002B01DA214900E02149224A13680B431360214A214B1A60214A224B1A608022D205214B1A60214B214A1360214A1360214A13688021490285
:400640000B43136000231F4A13601F4A136001331E4A136002211E4A11601E4908681E4A024013430B6000230BE09A001B495018002101605C001A4821521A481A49505005
:400680000133002BF1D010BD9907000020001A4080031A40400210534002005300001A40CD00008004001A400000FF0718001A401C001A400400040010001A4014001A4049
:4006C00000031A4028021A4038021A4018021A40000F1A4030001A40FFFFFFDF80001A4084010020204E00008001002010B5074B1B68002B08DB054A1368802109060B4344
:4007000013600A2000F0AAF810BDC04600001A4010B5064B1B78002B04D1FFF767FF0122024B1A70FFF7E2FF10BDC0465E010020034A1368802149020B4313607047C04603
:4007400004001A40020083070CD0074B1B680120184001D19307F8D4002804D00122024B1A6000E00020704710021A4010B5041E02D0002000F020F8002C07D1A400054B4B
:400780009C46644420680004000C00E0002000B210BDC04680011A40014B1A681A60704710021A401F2318401E3B8340014A13607047C04600E100E001BE704770B50400BB
:4007C0000D001F2802D90020FFF7F6FF1034A40080239B059C4664442068256070BDC04670B504000E00032902D90020FFF7E4FF1F2C02D90020FFF7DFFF03252540ED00FF
:40080000063500F09BF9A408A400074B9C46644421680323AB4099430B003100A9401943216000F08FF970BD00E400E010B5040006E0084B586800F077F9074B9C466444EE
:4008400080231B029C42F4D8024B9868604300F06BF910BDC40000200080FFFF10B5034B1B7B584300F060F910BDC046C4000020F0B557464E46C0B483B0040000F05EF98F
:400880000190E71E2D2F74D83F4B1B78DBB29C4208D83E4B1B78DBB29A463D4B1B78DBB2994631E03B4B1B78DBB29C4208D83A4B1B78DBB29A46394B1B78DBB2994623E002
:4008C000374B1B78DBB29C4208D8364B1B78DBB29A46354B1B78DBB2994615E0334B1B78DBB29C4208D8324B1B78DBB29A46314B1B78DBB2994607E02F4B1B78DBB29A46EE
:400900002E4B1B78DBB299462D4BDE5D2F2E09D92A2C07D919222B4B1A60052000F004F9192503E0274B1D683F231D40B54206D9234BDA5D234B1A60052000F0F5F81F4B34
:400940009C4664442378DBB21F4A13601F4B52461A601F4B4A461A600520FFF77FFFB5420AD2174BDA5D174B1A60052000F0DCF802E00020FFF720FF019800F0E3F803B001
:400980000CBC91469A46F0BDC0F1FF0FC1F1FF0FC2F1FF0FC3F1FF0FC4F1FF0FC5F1FF0FC6F1FF0FC7F1FF0FC8F1FF0FC9F1FF0FCAF1FF0FCBF1FF0FCCF1FF0FCDF1FF0F3E
:4009C000F01F00002CFF0B4028FF0B401CFF0B4020FF0B40034B1868C0231B02184000D00120704700010B4010B500F0A7F8044A1368C02109020B43136000F0A3F810BDF4
:400A000000010B4010B500F099F808490A68084B1A408024E40122430A600A6813408022120213430B6000F08DF810BD00010B40FF3FFFFF70B5050000F080F80400FFF7CA
:400A4000C9FF002803D0FFF7DDFF012100E0002108482840084A1568084B2B40184310601368012901D1FFF7BFFF200000F06AF870BDC0460404040010020B40FBFBFBFF85
:400A800010B5244B1B685B0715D5234B1B685B070ED5224BD969042001401F4C22688A432260DA698243DA611B69002B00D098470420FFF7BFFF174B1B685B0518D5164B99
:400AC0001B685B0510D5154BD9698022D2001140114802688A430260D969114A0A40DA615B69002B00D098478020C000FFF7A2FF084B1B685B030CD5074B1B685B0304D5FD
:400B0000064B9B69002B00D098478020C002FFF791FF10BD10020B40D800002060010020FFFBFFFF000000000230800804D0C0460138FDD1C046C046C0467047EFF310802D
:400B400072B6704780F310887047C046002243088B4274D303098B425FD3030A8B4244D3030B8B4228D3030C8B420DD3FF22090212BA030C8B4202D31212090265D0030BA4
:400B80008B4219D300E0090AC30B8B4201D3CB03C01A5241830B8B4201D38B03C01A5241430B8B4201D34B03C01A5241030B8B4201D30B03C01A5241C30A8B4201D3CB02A6
:400BC000C01A5241830A8B4201D38B02C01A5241430A8B4201D34B02C01A5241030A8B4201D30B02C01A5241CDD2C3098B4201D3CB01C01A524183098B4201D38B01C01AB8
:400C0000524143098B4201D34B01C01A524103098B4201D30B01C01A5241C3088B4201D3CB00C01A524183088B4201D38B00C01A524143088B4201D34B00C01A5241411A8E
:400C400000D20146524110467047FFE701B5002000F006F802BDC0460029F7D076E770477047C0469E2110B5C905041C01F0A2F8002803D1201C00F093F910BD9E21201C12
:400C8000C90500F007F800F08BF980231B069C466044F2E7F8B54A024E0043024400240EC50F9B09360EC90F9209FF2E00D183E001204140A01BA9425CD0002800DC95E061
:400CC000002E1CD1002A00D081E05A0704D00F221A40042A00D004335A013BD50134FF2C00D191E001209B015B0AE4B205405B02E4055B0AED0723432B431800F8BDFF2C14
:400D0000E3D08021C9040A431B2800DD90E016002021C640081A8240511E8A4132439B1A5A0115D59B019E09300001F04DF80538864084426CDC041B330020200134E34027
:400D4000041BA640721E964100243343BDE70D005A07BCD1DF0801231D40FF2C33D1002F00D190E08022D20313003B435B025B0AFF24BCE700284FDD002E2ED0FF2CA4D018
:400D80008025ED042A431B2800DD97E016002025C640281A8240501E824132439B185A01D5D50134FF2C6DD001227B481A405B08034013430D0088E7002A00D07AE777E7C8
:400DC000031EC5D100257B025B0AE4B28FE701380028A4D0FF2C97D177E7002A00D174E701380028DAD0FF2CCDD16EE7002821D1601CC0B2012858DD80279E1AFF043740A5
:400E00002FD0D61A0D008FE701231D4000236EE7624B241A334058E7002851D1601CC6B2012E33DDFF282DD09B185B0804004CE7012274E7002C1AD0FF2E1FD08024E40480
:400E4000404223431B2800DD96E01D002024C540201A8340581E83412B43D31A34000D005EE7002E00D05FE700250024ABE7002B44D0C0430028F0D0FF2EE3D11300FF2416
:400E80000D0022E70D00FF24002330E7002C5DD1002B7DD0002A00D117E79B185A0100D456E73E4A040013400FE7002C1ED1002B2FD1002A65D013000D0006E701226DE7CA
:400EC000002C1FD1002B59D0C04300280BD0FF2E4FD01B285EDC1D002024C540201A8340581E83412B439B18340058E7002B1CD1002A49D013000D00FF24E6E613003400D1
:400F00000D00E2E6FF2E34D08024E40440422343DFE7002A00D1D8E68027981AFF04074000D14DE7D31A0D00CFE6FF24002A00D1CBE68020DB08C003034204D0D208024215
:400F400001D113000D00DB00FF24BEE6002B10D0FF24002A00D1B8E68020DB08C003034203D0D208024200D11300DB000D00FF24ABE61300FF24A8E601236EE71300340096
:400F8000A3E6002700251EE780270025FF03E9E613009AE60123A6E7FFFFFF7DFFFFFFFB4302590A4300C20F1B0E00207E2B0EDD9D2B0DDC802000040143952B0BDC962075
:400FC000C31AD9400B005842002A00D118007047034BD018FBE7963B99400B00F3E7C046FFFFFF7F70B5002830D0C317C5185D40C40F280000F0E8FE9E231B1A962B0DDC51
:401000009622D21A95406A02520AD8B25202C005520AE40702432243100070BD992B19DC9922D21A9540124A2A40690704D00F210D40042D00D00432510103D50C4B1A40D0
:401040009F231B1A9201520AD8B2DFE7002400200022DBE705222E00121AB921D6402A00C91A8A40551EAA4135001543DBE7C046FFFFFFFBF0B556464D4644465F46F0B478
:401080001D000E034C00CB0F87B0070092468146360B640D98466AD06D4B9C4235D08022430F12041343F6001E43C3009946694B00279C460023644402932B0368001B0B68
:4010C000ED0F51469B46400D009500D178E0604B98426CD05B46DA004B0F802109040B4313439B465346D9005A4B9C46002360444246201A6A40924601901F430F2F00D99A
:40110000B0E05548BF00C0598746374300D088E0002399460233082700260293CDE74346B34649460093029B009A9246022B00D0BFE1002153460122002689461A40444B4B
:40114000002136030C0D2405360B2643434C1B0526401E437600D207760816434846310007B03CBC90469946A246AB46F0BD330003434FD0002E00D1BCE1300000F024FE6E
:4011800003000B3B1C2B00DDADE11D220100D31A08393A008F408E40DA40B9461643304B00279C46002360444442029385E753465A4613432CD1002300219B46023397E747
:4011C0000B4320D05B46002B00D19EE1584600F0FBFD03000B3B1C2B00DD8FE102005946083A91408B461D21CB1A5146D9400B0059460B4351469B469140194B9C466044AF
:401200004042002374E7002300219B4601336FE703236DE70023994601330427002602934BE703230C27029347E70122D51A382D00DCB0E153461A4000210023002689460B
:401240007EE700238026994600223603004B77E7FF07000001FCFFFF20200000FFFF0F80F30300005E4500D972E100D16DE1019B4D46013B01930023340002935B461E02FF
:401280000B0E1E430B020393330C994633041B0C494620000093FFF759FC009B370043430600494620009846FFF7D6FC2C0C09040C43A04509D9E419731EA74200D95CE16D
:4012C000A04500D859E1023EE4194346E41A49462000FFF73BFC0300009A80465343494620009B46FFF7B8FC2A040904120C0A4393450DD94346D219013B974200D93AE143
:40130000934500D837E102235B429C46D219E0445B46D21A4346360433439B460399180C0B0C1D00059309045B46090C0C001B041B0C4443049159436B4368431B190D0C8C
:40134000EB189C4203D980246402A44660441C0C09041B04090C20185D18824200D2DEE000D1D7E0161A029B9C465D1BAC459B415B42F61AB74200D106E149463000FFF71F
:40138000E5FB009B04004343494630009846FFF763FC2E0C09040E43B04509D9F619631EB74200D9F3E0B04500D8F0E0023CF6194346F31A494618000293FFF7C7FB009B83
:4013C00006004343494602989846FFF745FC2D0409042D0C0D43A84509D9ED19731EAF4200D9D6E0A84500D8D3E0023EED192404210043463143049E059A3000ED1A0B04EB
:401400000C0C1B0C58436643534354439A19030C9B189E4203D980225202944664441A0C00041B04000C14191B18A54250D34DD001231943964A019B94466344002B00DCF3
:40144000F3E64A0709D00F220A40042A05D00A1D8A42894149428B4411005A46D20108D55A468C4B1A4093468022D2009446019B6344894A934200DD5BE65A46C9085007AA
:4014800008435602514601225B058146360B5B0D0A4055E680231B031E4211D05A461A420ED15E461E433603360B2A0089467B4B46E6032B00D1E1E0012BBBD11A40BBE6C0
:4014C0001E433603360B4246744B39E6002BB1D07D194A1EAF4252D91100A542A8D1039A9A42A5D1A6E703003E00283B9E400023994654E600F068FC203041E603005246D4
:40150000283B9A400021934677E6504600F05CFC20305EE6029B0026AB4200D323E7039E0299B44661448846B045B6415B467642F619B218013B0291974213D290424FD8CB
:4015400000D18EE0161A9B460DE7894500D28EE674084B46F60735005B081D434B46DB0702938BE69742EDD10399029CA142E5D93E1A9B46F7E69846CAE61E00A5E6AC42EB
:401580003ED874D0110053E70121494252E71C000EE71E002BE71F2D3CDC20230A0058465B1B9840EA4099400243481E81415E461143EE404B0709D00F230B40042B05D080
:4015C0000B00191D99429B415B42F61833023CD55346012200211A40002601238946AFE502235B429C46039CE344A446029B63449846A045B6417642F6190293B218B1E60F
:4016000003988A1E41008142B6417642F619AD19039161E71F225242D31A5A46DA401300202D29D040225846551BA8400143481E814107200B4318400026002809D00F2245
:4016400000261A401900042ABBD10B0070077602360BDB0803439946012253461A4000236EE502998D42BBD89B4600267BE603989842C5D3110032E70020D7E780265B4687
:4016800036031E433603360B009A8946034B57E5FF030000FFFFFFFEFE070000FF070000F0B55F4656464D464446F0B40D0399464E002B0B87B00700924680469B46760DC1
:4016C000CC0F002E69D06D4B9E4235D05B468022DD001204430F13432B439B46C3009846674B00279C460023664401934A4615035000D20F53462D0B400D914600D176E02C
:401700005E4A90426CD080225B0F120413435C4AED0094461D4353460022DB00604449463618701C6140029017430F2F00D9AFE05448BF00C759BF465B461F4300D088E01D
:4017400000239B469846023308270193CEE74946022A6AD0032A00D109E2012A00D0BBE111400022002300259046CCB200212D030A0D12052D0B1543434A1B0515401D43E5
:401780006D00E4076D0825434046290007B03CBC90469946A246AB46F0BD034352D05B46002B00D18AE1584600F00EFB03000B3B1C2B00DD7BE11D22D31A3A0001005D4681
:4017C000DA4008398D4013008F402B439B46B8462E4B00279C46002360444642019385E752462A432CD100250023022297E752462A4321D0002D00D154E1280000F0E4FAB6
:4018000003000B3B1C2B00DD46E11D21CB1A51460200D9405346083A954093400D431B4A944660444042002279E7012400220C40124B0025904699E70025002301226EE75A
:4018400003226CE700239B4698460133042701934CE703230C27019348E700238025984600242D03054B81E75D464346019A6FE75D4643462100019A6AE7C046FF070000B8
:4018800001FCFFFF60200000FFFF0F80F30300004246120C91461A0C9446424617044A461B041B0C5A43604690464A4642431000039262461C003F0C7A437C4342440192BD
:4018C000220C9246019A5244904506D98246802040028046C24450460390100C049048462404240C1204121905922A0C2D042D0C68432C00824648467C4350438146200CDE
:401900008046574357444744BA4503D9802040028046C144380C3F04B84648442404240C01900498A044404404905846000C814658460404200C8246070048465F434C4633
:401940004343604660436446834650464443380C8446E4186444A34203D980235B029C46E34448463F04230C3F0C2404E419574668436F4384464D46504655434243380CCE
:40198000814662444A445B44944503D9802040028446654403983F04834604983F0C8446E344C345804140428246100484460198674484466744A344BC46A345A4419946C5
:4019C000D44464428742BF41D4458041E144A04699459B417F424042C8440743120CBA18A045A4415F423B0064422343D71843467D19DB0D6D021D435B465A02059B1A43C7
:401A0000531E9A415B46DB0D1A4343465B021343EA0107D501225C0813402343EA07029E13436D08574AB218002A4BDD580709D00F201840042805D0181D98429B415B42D0
:401A4000ED180300E80104D54F4A15408022D200B2184E48824200DDE7E60124DB08680718436D02530580462D0B5B0D0C407DE6802259461203114208D0154206D11543B7
:401A80002D0398462D0B4C46414B6FE65D4615432D032D0B3E4B69E603005546283B9D400023BCE6504600F08FF92030A8E60300283B9F400023BB46984689E600F084F980
:401AC000203073E60124A61A382E07DD00220C4000230025904649E6029EA3E71F2E20DC20222C001800921BF040944093400443581E83411C43F540630709D00F232340E9
:401B0000042B05D023001C1D9C4292415242AD182B021FD5012400220C4001230025904624E61F202C004042821AD440202E1CD04022961BB5402B43581E8341072023434A
:401B400018400025002809D00F2200251A401C00042AD8D1230068076D022D0B0124DB08034398460C40002300E60025E3E780220124120315432D0398462D0B0C40044B86
:401B8000F4E5C046FF030000FFFFFFFEFE070000FF0700004200120E511C4302C9B270B55D0AC40F012915DDE02189008C466D071B0B6244002128000D0D2D052B431C4D2C
:401BC00052052B40520813435B00E4075B082343190070BD002A15D1002D1FD0280000F0F3F80A281DDC0B232A001B1ADA4013000200153295400F4A1B03121A52051B0BCC
:401C0000520DD7E7002D06D080221B0B120313436D07094ACEE7084A0023CBE700220023C8E703000B3B9D402B000025E3E7C046FFFF0F8089030000FF0700004B0070B5E5
:401C40005E0D0C03751C640A420F6D052243C90FC4006D0D012D2ADD3B4BF318FE2B1ADC002B42DD8001451EA841D2001043620F0243500704D00F201040042800D00432FA
:401C80008020C004104021D00133FF2B03D09201520ADBB201E0FF2300225202520ADB0513435B00C9075B080B43180070BD002E07D01443EFD08020D20080040243FF232E
:401CC000D7E722430023002A03D00522D208FF2B03D05202520ADBB2DFE7002A32D08020C00302435202520AD7E71800173014DB8020000402431E20C01A1F280FDC2500B8
:401D0000124BF3189D406E1EB5419A402B0013432200C2401A430023ABE70023D5E702256D42EB1A1500DD40202809D0084BF3189A401443621E9441220000232A4398E729
:401D40000022F6E70022A8E780FCFFFF82FCFFFFA2FCFFFF8446081C6146FFE71FB500F0BDF8002801D40021C8421FBD10B500F049F84042013010BD10B500F0AFF800282F
:401D800001DB002010BD012010BDC04610B500F0A5F8002801DD002010BD012010BDC04610B500F057F8002801DC002010BD012010BDC04610B500F04DF8002801DA002026
:401DC00010BD012010BDC0461C2101231B04984201D3000C10391B0A984201D3000A08391B09984201D30009043902A2105C40187047C04604030202010101010000000035
:401E000000000000430270B542004C005D0AC30F4802120E460A240EC90FFF2A0FD0FF2C11D00120A24200D070BDB542FCD18B420DD0002AF8D12800431E9841F4E70120D8
:401E4000002DF1D1EBE70120002EEDD1E9E70020EAE7C0464302F0B542005D0AC30F4802440A4800120E000EC90FFF2A1FD0FF2822D0002A09D16E426E4100280FD1002CBA
:401E80000DD10020002D09D005E0002801D1002C01D08B4213D0584201231843F0BD002EF7D048424141012049420843F6E7002DDDD002204042F1E7002CDAD0F9E7824227
:401EC000E9DC04DBA542E6D80020A542E6D25842434101205B421843E0E7C0464302F0B542004C005E0AC30F4802120E450A240EC90FFF2A17D0FF2C19D0002A0BD1704285
:401F00007041002C17D0002807D048424141012049420843F0BD002C13D08B4214D0584201231843F6E70220002EF3D1E3E70220002DEFD1E1E7002DE5D10020002EE9D0D9
:401F4000EDE7002DE9D1EAE7A242E8DC04DBAE42E5D80020AE42DDD25842434101205B421843D7E7014B18687047C0463C0100200E4B70B500251E000D4CE41AA410A54254
:401F800004D0AB00F35898470135F8E700F08AF8084B00251E00084CE41AA410A54204D0AB00F35898470135F8E770BDB0200000B0200000B0200000B8200000030082189E
:401FC000934202D019700133FAE770470000000054656D70617261747572650069733A004300000000300F40000400400F400004030405060708090A0B0C0E0F101112133E
:402000001415161718191B1C1D1E1F2021222325262728292A2B2E2F3031323334350000641200003211000038120000281100003812000042120000381200002811000001
:40204000321100003211000042120000281100001E1100001E1100001E110000941400009018000050170000501700004E17000068180000681800005A1800004E17000066
:40208000681800005A180000681800004E170000701800007018000070180000701A000043000000F8B5C046F8BC08BC9E46704751010000D1020000F8B5C046F8BC08BCCE
:4020C0009E46704729010000D8200000C0000020800000004800000000000000010000000000E02EC05D00001800000000366E010404040000000000000000000000000086
:402100000000000000000000000000000000000000000000A020000000000000000000000000000000000000000000000000000000000000000000000000000000000000DF
:402140000000000000000000000000000000000000000000DC0000200000000000000000000000000000000000000000000000000000000000000000000000000000000063
:40218000000000000000000000000000000000000000000000000000000000000000000000000000000000000000000000000000000000000000000000000000000000001F
:4021C00000000000000000000000000000000000000000000000000000000000000000000000000000000000000000000000000000000000000000000000000000000000DF
:40220000000000000000000000000000000000000000000000000000000000000000000000000000000000000000000000000000000000000000000000000000000000009E
:40224000000000000000000000000000000000000000000000000000000000000000000000000000000000000000000000000000000000000000000000000000000000005E
:0200000490303A
:02000000ED1AF7
:0200000490402A
:200000000000000000000000000000000000000000000000000000000000000000000000E0
:0200000490501A
:0C000000000204C81193110104D2FEADEF
:0200000490600A
:0100000001FE
:00000001FF